:100CDF00D3EF9400EE64809480400F7DFADDFE7DAB
:0A0CEF00F7DDFEEF1F70E91E80E63E
:010CF90022D8
:100D13008F80C2B4C2B5D2B67F057E00120CDFC28B
:020D2300B622F6
:100CFA007F02120D137F38120D137F0E120D137F10
:090D0A0006120D137F01020D1306
:100D25008F80D2B4C2B5D2B67F057E00120CDFC269
:020D3500B622E4
:100CBC008B1C8A1D891EAB1CAA1DA91E1209C5FFFF
:100CCC006010120D257401251EF51EE4351DF51D51
:030CDC0080E4228F
:040A9C008E0C8F0D20
:100AA000E4F50EF50FF510F511C3E50C64809480A4
:100AB00050107F2D120D25C3E4950DF50DE4950C16
:100AC000F50CE50D450C70057F30020D25E50D4553
:100AD0000C60370511E51170020510AE0CAF0D7CEE
:100AE000007D0A1209F0AA04AB05AE0EAF0F7C0020
:100AF0007D0A1209DEEF2BF50FEE3AF50EAE0CAFC4
:100B00000D1209F08E0C8F0D80C3E4FBE51145102A
:100B1000602FAE0EAF0F7C007D0A1209F0ED24307D
:100B2000FF74122BF8A607E511151170021510AE0F
:100B30000EAF0F7C007D0A1209F08E0E8F0F0B8016
:0F0B4000CB74122BF8E4F6FB7A007912120CBC7E
:010B4F002283
:100BC300E4FDFCC293C290D292D290C290D292D250
:100BD30090C290D292D290C290C292D290C290C24E
:100BE30092D290C290D292D290C290D292D2907B63
:100BF3000BC29030911574017E00A803088005C3D1
:100C030033CE33CED8F94205EE4204D2901BC3EB68
:0C0C13006480948050DBD293AE04AF05E7
:010C1F0022B2
:100C2000E4FDFCC293C290D292D290C290D292D2F2
:100C300090C290D292D290C290D292D290C290C2E0
:100C400092D290C290D292D290C290D292D2907B05
:100C50000BC29030911574017E00A803088005C373
:100C600033CE33CED8F94205EE4204D2901BC3EB0B
:0C0C70006480948050DBD293AE04AF058A
:010C7C002255
:100C7D00120CFA120D377F01120D13120C20E48F96
:100C8D000B8E0AF509F508120A9CAF0BAE0AAD09D9
:100C9D00AC08E41209067BB67AF3797D783D12082B
:0F0CAD00001209448F237FF47E01120CDF80C7F1
:03000B00020B5095
:100B5000C0E0C0D075D000C000C004C005C006C051
:100B600007C28C30A01FC2A0AF23EF3395E0FEC3B5
:100B700074FF9FFFE49EFE3395E08F228E21F520C7
:100B8000F51FFD8015D2A0AF23EF3395E08F22F53E
:100B900021F520F51FAF22FEAD20AC1F7808120A08
:100BA00034C374FF9FFF8F8CC374FF9522FF8F8A1D
:100BB000C28CD28CD007D006D005D004D000D0D0C3
:030BC000D0E03250
:100D3700E4F523438901F58CF58AD2AFD2A9D28C89
:010D47002289
:10080000EC4D6011E8497017ED33EC3304600DE4F2
:10081000FCFFFEFD22E933E8330470F80209B01250
:10082000097B58046009E4CC248150062850090251
:1008300009BA2840030209B7C0E0EB4A7044B98006
:1008400006D0E0FB0209A6EF4E701CBD8008EBFF4E
:10085000EAFEE9FD80EBE98DF0A4FEE5F00208E98F
:10086000E9CDF9EAFEEBFFEF89F0A4FCE5F0CE89D3
:10087000F0A42EFFE435F0CD89F0A42DFEE435F090
:100880008067EF4E7005BD80D780C3EF8BF0A4ACBE
:10089000F0EE8BF0A42CFCE435F0F8EF8AF0A42CF9
:1008A000E5F038FCE433CB8DF0A42CFCE5F03BF80C
:1008B000EE8AF0A42CFCE5F038F8E433CF89F0A4FC
:1008C0002CFCE5F038CF3400CE89F0A42FFFE5F002
:1008D0003EFEE433C98DF0A42EFEE5F039CD8AF05A
:1008E000A42FFFE5F03EFEE43DFD33D0E0FB5007D2
:1008F0000BBB000F0209BAEC2CFCEF33FFEE33FE0A
:06090000ED33FD02099237
:1009060075F020800E75F010800575F0087D007E6C
:10091600007F003392D530D503120A26EC334010FF
:10092600EF33FFEE33FEED33FDEC33FCD5F0ED2275
:0E093600E5F0247EA2D513CC92E7CDCEFF22B1
:10094400EDD2E7CD33EC3392D524814006E4FFFEAB
:10095400FDFC22FCE4CFCECDCC24E0501174FF800A
:10096400EDC3CC13CCCD13CDCE13CECF13CF0470A7
:07097400F030D5DE020A2677
:10097B00E9D2E7C933E833F892D5EDD2E7CD33ECC2
:07098B0033FC5002B2D5223B
:10099200EC30E7100FBF000C0EBE00080DBD0004C6
:1009A2000BEB6014A2D5EB13FCED92E7FD2274FF72
:1009B200FCFDFEFF22E480F8A2D574FF13FC7D80CB
:0309C200E480EFDF
:03000000020D48A6
:0C0D4800787FE4F6D8FD758123020C7D55
:1009C500BB010689828A83E0225002E722BBFE0230
:0909D500E32289828A83E4932263
:1009DE00EF8DF0A4A8F0CF8CF0A428CE8DF0A42E2D
:0209EE00FE22E7
:1009F000C2D5EC30E709B2D5E4C39DFDE49CFCEE22
:100A000030E715B2D5E4C39FFFE49EFE120A47C348
:100A1000E49DFDE49CFC8003120A4730D507C3E443
:060A20009FFFE49EFE2290
:0E0A2600C3E49FFFE49EFEE49DFDE49CFC22E1
:100A3400E8600FECC313FCED13FDEE13FEEF13FFA0
:030A4400D8F122C4
:100A4700BC000BBE0029EF8DF084FFADF022E4CC93
:100A5700F875F008EF2FFFEE33FEEC33FCEE9DEC5C
:100A6700984005FCEE9DFE0FD5F0E9E4CEFD22EDA2
:100A7700F8F5F0EE8420D21CFEADF075F008EF2FEC
:100A8700FFED33FD4007985006D5F0F222C398FDDD
:050A97000FD5F0EA227A
:00000001FF
