:100BF200D3EF9400EE64809480400F7DFADDFE7D99
:0A0C0200F7DDFEEF1F70E91E80E62B
:010C0C0022C5
:100C26008F80C2B4C2B5D2B67F057E00120BF2C267
:020C3600B622E4
:100C0D007F02120C267F38120C267F0E120C267FC7
:090C1D0006120C267F01020C26D0
:100C38008F80D2B4C2B5D2B67F057E00120BF2C245
:020C4800B622D2
:100BB1008B188A19891AAB18AA19A91A120800FFE9
:100BC1006010120C387401251AF51AE43519F5195B
:030BD10080E4229B
:0408DF008E088F09E7
:1008E300E4F50AF50BF50CF50DC3E5086480948077
:1008F30050107F2D120C38C3E49509F509E49508CF
:10090300F508E509450870057F30020C38E509450F
:10091300086037050DE50D7002050CAE08AF097CC4
:10092300007D0A120880AA04AB05AE0AAF0B7C0057
:100933007D0A120819EF2BF50BEE3AF50AAE08AF54
:10094300091208808E088F0980C3E4FBE50D450C6E
:10095300602FAE0AAF0B7C007D0A120880ED2430B5
:10096300FF740E2BF8A607E50D150D7002150CAEDE
:100973000AAF0B7C007D0A1208808E0A8F0B0B8056
:0F098300CB740E2BF8E4F6FB7A00790E120BB151
:010992002242
:100A9200E4FDFCC293C290D292D290C290D292D282
:100AA20090C290D292D290C290C292D290C290C280
:100AB20092D290C290D292D290C290D292D2907B95
:100AC2000BC29030911574017E00A803088005C303
:100AD20033CE33CED8F94205EE4204D2901BC3EB9B
:0C0AE2006480948050DBD293AE04AF051A
:010AEE0022E5
:100AEF00E4FDFCC293C290D292D290C290D292D225
:100AFF0090C290D292D290C290D292D290C290C213
:100B0F0092D290C290D292D290C290D292D2907B37
:100B1F000BC29030911574017E00A803088005C3A5
:100B2F0033CE33CED8F94205EE4204D2901BC3EB3D
:0C0B3F006480948050DBD293AE04AF05BC
:010B4B002287
:0B0C5B00120C0D120C4A120B8980FBDA
:03000B00020A1FC7
:100A1F00C0E0C0D075D000C000C004C005C006C083
:100A2F0007C28C30A01FC2A0AF22EF3395E0FEC3E8
:100A3F0074FF9FFFE49EFE3395E08F1E8E1DF51C05
:100A4F00F51BFD8015D2A0AF22EF3395E08F1EF579
:100A5F001DF51CF51BAF1EFEAD1CAC1B7808120854
:100A6F00CCC374FF9FFF8F8CC374FF951EFF8F8ABB
:100A7F00C28CD28CD007D006D005D004D000D0D0F5
:030A8F00D0E03282
:100C4A00E4F522438901F58CF58AD2AFD2A9D28C78
:010C5A002277
:040C6E0044495300A2
:070C6600021F000001210A3A
:100BD400E4F58CF58AD2A4152115211521152115CA
:0E0BE4002115211521152115211521C2A4224C
:100B4C00120BD430A5FD20A5FD858C83858A82757A
:100B5C008AFF758CFFAF82AE83E4FCFD7B707A94C8
:100B6C00F9F8D31208B6400FAF82AE837C007D3B00
:0C0B7C0012082B8F088003E4F508AF0876
:010B8800224A
:100B8900758901E4F58AF58CD28C7BFF7A0C796E34
:100B9900120BB143B0047F01120C26120B4C751FC6
:080BA900008F20AE1F0208DFDF
:030000000209935F
:0C099300787FE4F6D8FD7581220209DAB5
:10080000BB010689828A83E0225002E722BBFE02F6
:09081000E32289828A83E4932229
:10081900EF8DF0A4A8F0CF8CF0A428CE8DF0A42EF3
:02082900FE22AD
:10082B00BC000BBE0029EF8DF084FFADF022E4CCB1
:10083B00F875F008EF2FFFEE33FEEC33FCEE9DEC7A
:10084B00984005FCEE9DFE0FD5F0E9E4CEFD22EDC0
:10085B00F8F5F0EE8420D21CFEADF075F008EF2F0A
:10086B00FFED33FD4007985006D5F0F222C398FDFB
:05087B000FD5F0EA2298
:10088000C2D5EC30E709B2D5E4C39DFDE49CFCEE93
:1008900030E715B2D5E4C39FFFE49EFE12082BC3D8
:1008A000E49DFDE49CFC800312082B30D507C3E4D3
:0608B0009FFFE49EFE2202
:1008B600EB9FF5F0EA9E42F0E99D42F0EC6480C8B9
:0608C60064809845F02259
:1008CC00E8600FECC313FCED13FDEE13FEEF13FF0A
:0308DC00D8F1222E
:10099F00020C5BE493A3F8E493A34003F68001F207
:1009AF0008DFF48029E493A3F85407240CC8C33359
:1009BF00C4540F4420C8834004F456800146F6DF28
:1009CF00E4800B0102040810204080900C66E47E46
:1009DF00019360BCA3FF543F30E509541FFEE4931D
:1009EF00A360010ECF54C025E060A840B8E493A3E4
:1009FF00FAE493A3F8E493A3C8C582C8CAC583CA0F
:100A0F00F0A3C8C582C8CAC583CADFE9DEE780BEC6
:010C6D000086
:00000001FF
